{
  "_format": "hh-sol-artifact-1",
  "contractName": "PagerEscrow",
  "sourceName": "contracts/PagerEscrow.sol",
  "abi": [
    {
      "inputs": [
        {
          "internalType": "address",
          "name": "_usdc",
          "type": "address"
        },
        {
          "internalType": "address",
          "name": "_platform",
          "type": "address"
        }
      ],
      "stateMutability": "nonpayable",
      "type": "constructor"
    },
    {
      "inputs": [],
      "name": "PLATFORM_FEE",
      "outputs": [
        {
          "internalType": "uint256",
          "name": "",
          "type": "uint256"
        }
      ],
      "stateMutability": "view",
      "type": "function"
    },
    {
      "inputs": [
        {
          "internalType": "uint256",
          "name": "bountyId",
          "type": "uint256"
        },
        {
          "internalType": "address",
          "name": "hunter",
          "type": "address"
        }
      ],
      "name": "approveBounty",
      "outputs": [],
      "stateMutability": "nonpayable",
      "type": "function"
    },
    {
      "inputs": [
        {
          "internalType": "uint256",
          "name": "",
          "type": "uint256"
        }
      ],
      "name": "bounties",
      "outputs": [
        {
          "internalType": "address",
          "name": "creator",
          "type": "address"
        },
        {
          "internalType": "uint256",
          "name": "amount",
          "type": "uint256"
        },
        {
          "internalType": "bool",
          "name": "active",
          "type": "bool"
        }
      ],
      "stateMutability": "view",
      "type": "function"
    },
    {
      "inputs": [],
      "name": "bountyCount",
      "outputs": [
        {
          "internalType": "uint256",
          "name": "",
          "type": "uint256"
        }
      ],
      "stateMutability": "view",
      "type": "function"
    },
    {
      "inputs": [
        {
          "internalType": "uint256",
          "name": "amount",
          "type": "uint256"
        }
      ],
      "name": "createBounty",
      "outputs": [],
      "stateMutability": "nonpayable",
      "type": "function"
    },
    {
      "inputs": [],
      "name": "platform",
      "outputs": [
        {
          "internalType": "address",
          "name": "",
          "type": "address"
        }
      ],
      "stateMutability": "view",
      "type": "function"
    },
    {
      "inputs": [],
      "name": "usdc",
      "outputs": [
        {
          "internalType": "contract IERC20",
          "name": "",
          "type": "address"
        }
      ],
      "stateMutability": "view",
      "type": "function"
    }
  ],
  "bytecode": "0x608060405234801561001057600080fd5b50604051610da2380380610da28339818101604052810190610032919061011d565b816000806101000a81548173ffffffffffffffffffffffffffffffffffffffff021916908373ffffffffffffffffffffffffffffffffffffffff16021790555080600160006101000a81548173ffffffffffffffffffffffffffffffffffffffff021916908373ffffffffffffffffffffffffffffffffffffffff160217905550505061015d565b600080fd5b600073ffffffffffffffffffffffffffffffffffffffff82169050919050565b60006100ea826100bf565b9050919050565b6100fa816100df565b811461010557600080fd5b50565b600081519050610117816100f1565b92915050565b60008060408385031215610134576101336100ba565b5b600061014285828601610108565b925050602061015385828601610108565b9150509250929050565b610c368061016c6000396000f3fe608060405234801561001057600080fd5b506004361061007d5760003560e01c80633f28e9fb1161005b5780633f28e9fb146100dc5780634bde38c8146100f8578063a310378214610116578063dc2f8744146101325761007d565b806334fbc9a1146100825780633e362c96146100a05780633e413bee146100be575b600080fd5b61008a610164565b6040516100979190610698565b60405180910390f35b6100a8610169565b6040516100b59190610698565b60405180910390f35b6100c661016f565b6040516100d39190610732565b60405180910390f35b6100f660048036038101906100f1919061077e565b610193565b005b61010061034f565b60405161010d91906107cc565b60405180910390f35b610130600480360381019061012b9190610813565b610375565b005b61014c6004803603810190610147919061077e565b610628565b60405161015b9392919061086e565b60405180910390f35b600281565b60025481565b60008054906101000a900473ffffffffffffffffffffffffffffffffffffffff1681565b600081116101d6576040517f08c379a00000000000000000000000000000000000000000000000000000000081526004016101cd90610902565b60405180910390fd5b60008054906101000a900473ffffffffffffffffffffffffffffffffffffffff1673ffffffffffffffffffffffffffffffffffffffff166323b872dd3330846040518463ffffffff1660e01b815260040161023393929190610922565b6020604051808303816000875af1158015610252573d6000803e3d6000fd5b505050506040513d601f19601f820116820180604052508101906102769190610985565b506002600081548092919061028a906109e1565b919050555060405180606001604052803373ffffffffffffffffffffffffffffffffffffffff1681526020018281526020016001151581525060036000600254815260200190815260200160002060008201518160000160006101000a81548173ffffffffffffffffffffffffffffffffffffffff021916908373ffffffffffffffffffffffffffffffffffffffff1602179055506020820151816001015560408201518160020160006101000a81548160ff02191690831515021790555090505050565b600160009054906101000a900473ffffffffffffffffffffffffffffffffffffffff1681565b60006003600084815260200190815260200160002090508060020160009054906101000a900460ff166103dd576040517f08c379a00000000000000000000000000000000000000000000000000000000081526004016103d490610a75565b60405180910390fd5b3373ffffffffffffffffffffffffffffffffffffffff168160000160009054906101000a900473ffffffffffffffffffffffffffffffffffffffff1673ffffffffffffffffffffffffffffffffffffffff161461046f576040517f08c379a000000000000000000000000000000000000000000000000000000000815260040161046690610ae1565b60405180910390fd5b60008160020160006101000a81548160ff02191690831515021790555060006064600283600101546104a19190610b01565b6104ab9190610b72565b905060008183600101546104bf9190610ba3565b905060008054906101000a900473ffffffffffffffffffffffffffffffffffffffff1673ffffffffffffffffffffffffffffffffffffffff1663a9059cbb85836040518363ffffffff1660e01b815260040161051c929190610bd7565b6020604051808303816000875af115801561053b573d6000803e3d6000fd5b505050506040513d601f19601f8201168201806040525081019061055f9190610985565b5060008054906101000a900473ffffffffffffffffffffffffffffffffffffffff1673ffffffffffffffffffffffffffffffffffffffff1663a9059cbb600160009054906101000a900473ffffffffffffffffffffffffffffffffffffffff16846040518363ffffffff1660e01b81526004016105dd929190610bd7565b6020604051808303816000875af11580156105fc573d6000803e3d6000fd5b505050506040513d601f19601f820116820180604052508101906106209190610985565b505050505050565b60036020528060005260406000206000915090508060000160009054906101000a900473ffffffffffffffffffffffffffffffffffffffff16908060010154908060020160009054906101000a900460ff16905083565b6000819050919050565b6106928161067f565b82525050565b60006020820190506106ad6000830184610689565b92915050565b600073ffffffffffffffffffffffffffffffffffffffff82169050919050565b6000819050919050565b60006106f86106f36106ee846106b3565b6106d3565b6106b3565b9050919050565b600061070a826106dd565b9050919050565b600061071c826106ff565b9050919050565b61072c81610711565b82525050565b60006020820190506107476000830184610723565b92915050565b600080fd5b61075b8161067f565b811461076657600080fd5b50565b60008135905061077881610752565b92915050565b6000602082840312156107945761079361074d565b5b60006107a284828501610769565b91505092915050565b60006107b6826106b3565b9050919050565b6107c6816107ab565b82525050565b60006020820190506107e160008301846107bd565b92915050565b6107f0816107ab565b81146107fb57600080fd5b50565b60008135905061080d816107e7565b92915050565b6000806040838503121561082a5761082961074d565b5b600061083885828601610769565b9250506020610849858286016107fe565b9150509250929050565b60008115159050919050565b61086881610853565b82525050565b600060608201905061088360008301866107bd565b6108906020830185610689565b61089d604083018461085f565b949350505050565b600082825260208201905092915050565b7f416d6f756e74206d757374206265203e20300000000000000000000000000000600082015250565b60006108ec6012836108a5565b91506108f7826108b6565b602082019050919050565b6000602082019050818103600083015261091b816108df565b9050919050565b600060608201905061093760008301866107bd565b61094460208301856107bd565b6109516040830184610689565b949350505050565b61096281610853565b811461096d57600080fd5b50565b60008151905061097f81610959565b92915050565b60006020828403121561099b5761099a61074d565b5b60006109a984828501610970565b91505092915050565b7f4e487b7100000000000000000000000000000000000000000000000000000000600052601160045260246000fd5b60006109ec8261067f565b91507fffffffffffffffffffffffffffffffffffffffffffffffffffffffffffffffff8203610a1e57610a1d6109b2565b5b600182019050919050565b7f496e616374697665000000000000000000000000000000000000000000000000600082015250565b6000610a5f6008836108a5565b9150610a6a82610a29565b602082019050919050565b60006020820190508181036000830152610a8e81610a52565b9050919050565b7f4e6f742063726561746f72000000000000000000000000000000000000000000600082015250565b6000610acb600b836108a5565b9150610ad682610a95565b602082019050919050565b60006020820190508181036000830152610afa81610abe565b9050919050565b6000610b0c8261067f565b9150610b178361067f565b9250828202610b258161067f565b91508282048414831517610b3c57610b3b6109b2565b5b5092915050565b7f4e487b7100000000000000000000000000000000000000000000000000000000600052601260045260246000fd5b6000610b7d8261067f565b9150610b888361067f565b925082610b9857610b97610b43565b5b828204905092915050565b6000610bae8261067f565b9150610bb98361067f565b9250828203905081811115610bd157610bd06109b2565b5b92915050565b6000604082019050610bec60008301856107bd565b610bf96020830184610689565b939250505056fea26469706673582212204183f85c5d6ed33d2202bfc43139034321d88b5df8b4f39831222e2bb7b9f02964736f6c63430008140033",
  "linkReferences": {},
  "deployedLinkReferences": {}
}